:020000040800F2
:1000000000000220B1010008E3010008E50100083A
:10001000E7010008E9010008EB010008000000000A
:10002000000000000000000000000000ED010008DA
:10003000EF01000800000000F1010008990200082B
:10004000E1010008E1010008E1010008E101000808
:10005000E1010008E1010008E1010008E1010008F8
:10006000E1010008E1010008E1010008E1010008E8
:10007000E1010008E1010008E1010008E1010008D8
:10008000E1010008E1010008E1010008E1010008C8
:10009000E1010008E1010008E1010008E1010008B8
:1000A000E1010008E1010008E1010008E1010008A8
:1000B000E1010008E1010008E1010008E101000898
:1000C000E1010008E1010008E1010008E101000888
:1000D000E1010008E1010008E1010008E101000878
:1000E000E1010008E1010008E1010008E101000868
:1000F000E1010008E1010008E1010008E101000858
:10010000E1010008E1010008E1010008E101000847
:10011000E1010008E1010008E1010008E101000837
:10012000E1010008E1010008E1010008E101000827
:10013000E1010008E1010008E1010008E101000817
:10014000E1010008E1010008E1010008E101000807
:10015000E1010008E1010008E1010008E1010008F7
:10016000E1010008E1010008E1010008E1010008E7
:10017000E1010008E1010008E1010008E1010008D7
:10018000E1010008E10100080023064A0649981829
:10019000884204D20549595899500433F5E700F0D4
:1001A00061B900BF000000201000002050050008C9
:1001B00010B5094B094A934203D2002243F8042B9D
:1001C000F8E700F009F900F017F8044600F028F904
:1001D000204600F037F900BF100000201400002076
:1001E000FEE7FEE7FEE7FEE7FEE7FEE7FEE7FEE7E7
:0401F000FEE7FEE741
:0401F4008901000875
:1001F80010B586B002A800F09BF8039B4FF47A7202
:10020800B3FBF2F2013AB2F1807F09D21C4B5A607B
:100218001C4AF02182F8231000229A6007221A60F3
:100228000820012100F0C8F84FF4805300930123FF
:100238008DF804300322002313488DF806306946F0
:100248008DF805208DF8073000F02CF80E480F4C7B
:100258004FF4805100F069F84FF4FA732360236873
:10026800002BFCD108484FF4805100F05CF8074B94
:100278004FF4FA721A602368002BFCD1E6E700BF3E
:1002880010E000E000ED00E0000C0240100000204B
:10029800034B1A6812B11A68013A1A60704700BF16
:1002A800100000202DE9F0410F68002301229A4038
:1002B80002EA0705954231D15A00032406689440A2
:1002C800E443264006600E79D0F800C006FA02F82A
:1002D800013EF6B248EA0C0C012EC0F800C014D852
:1002E800866891F805C02640866086680CFA02FC8C
:1002F8004CEA06068660466826EA050545608D795B
:1003080046689D40ADB235434560C5682C40C46021
:10031800CD79C46805FA02F22243C2600133102B7A
:10032800C4D1BDE8F0810183704741837047000064
:100338001D4B9A6802F00C02042A10B503D0082A53
:1003480003D01A4B18E01A4B16E059685A6811F492
:10035800800F596814BF164B144B02F03F02B3FBD1
:10036800F2F3114A5268C2F30142C1F38811013213
:100378004B435200B3FBF2F30B4903608B680D4A01
:10038800C3F30313D45C0368E34043608C68C4F38D
:100398008224145D23FA04F484608968C1F342312D
:1003A800525CD340C36010BD003802400024F40002
:1003B80000127A0000000020044B1A6B09B11043A8
:1003C80001E022EA00001863704700BF00380240CD
:1003D80070B50D4B0D4DED1AAD1000241E46AC4204
:1003E80004D056F8242090470134F8E7084B094D0B
:1003F800ED1AAD1000241E46AC4204D056F8242055
:1004080090470134F8E770BDF4010008F8010008CE
:10041800F8010008F801000838B5064D064C641BC1
:10042800A41005EB840524B155F8043D013C984718
:10043800F9E738BDF8010008F8010008BFF34F8F4D
:10044800044A054BD16801F4E0610B43D360BFF364
:100458004F8FFEE700ED00E00400FA05344B1A6800
:1004680042F001021A6000229A60196821F0847132
:1004780021F4803119602F495960196882B021F43C
:1004880080211960DA60009201921A6842F4803281
:100498001A60274B1A6802F400320192009A01325E
:1004A8000092019A1AB9009AB2F5A04FF1D11B68CF
:1004B80013F4003318BF01230193019B012B05D0CE
:1004C8001D4B4FF000629A6002B07047184B1A6CCF
:1004D80042F080521A64194A116841F4404111608F
:1004E8009A689A609A6842F400429A609A6842F45C
:1004F800A0529A60124A5A601A6842F080721A60D2
:1005080019680B4A8901FBD50E4B40F20571196039
:10051800936823F003039360936843F002039360A6
:10052800034B9B6803F00C03082BF9D1C8E700BF05
:10053800003802401030002400ED00E00070004058
:0805480008544007003C02408A
:100550000000000001020304010203040607080969
:04000005080001B13D
:00000001FF
