:020000040800F2
:1000000000000220890100081D02000825020008E6
:100010002D020008350200083D0200080000000023
:100020000000000000000000000000004502000881
:100030004D0200080000000055020008E50300081A
:100040001502000815020008150200081502000834
:100050001502000815020008150200081502000824
:100060001502000815020008150200081502000814
:100070001502000815020008150200081502000804
:1000800015020008150200081502000815020008F4
:1000900015020008150200081502000815020008E4
:1000A00015020008150200081502000815020008D4
:1000B00015020008150200081502000815020008C4
:1000C00015020008150200081502000815020008B4
:1000D00015020008150200081502000815020008A4
:1000E0001502000815020008150200081502000894
:1000F0001502000815020008150200081502000884
:100100001502000815020008150200081502000873
:100110001502000815020008150200081502000863
:100120001502000815020008150200081502000853
:100130001502000815020008150200081502000843
:100140001502000815020008150200081502000833
:100150001502000815020008150200081502000823
:100160001502000815020008150200081502000813
:100170001502000815020008150200081502000803
:10018000150200081502000880B584B000AF0D4BC1
:10019000BB600D4B7B60BB683B6004E03B681A1D95
:1001A0003A6000221A607A683B689A42F6D800F0FA
:1001B0001FFB00F0A5F8F86000F050FBF86800F0B5
:1001C0006BFB00BFAC080020F008002080B584B0B5
:1001D00000AF0D4BFB600D4BBB600D4B7B60BB68F4
:1001E0003B6007E03B681A1D3A60FA68111DF96030
:1001F00012681A607A683B689A42F3D800F052FBA2
:100200001037BD4680BD00BF00620008000000201E
:10021000AC08002080B400AFFEE700BF80B400AFA0
:10022000FEE700BF80B400AFFEE700BF80B400AFC0
:10023000FEE700BF80B400AFFEE700BF80B400AFB0
:10024000FEE700BF80B400AFFEE700BF80B400AFA0
:10025000FEE700BF80B400AFFEE700BF80B400AF90
:04026000FEE700BFF6
:04026400CD010008C0
:1002680080B483B000AF03463960FB7197F907305B
:10027800002B0BDA0D49FB7903F00F03043B3A68B6
:10028800D2B21201D2B20B441A7609E0084997F9A2
:1002980007303A68D2B21201D2B20B4483F8002375
:1002A8000C37BD465DF8047B704700BF00ED00E0E9
:1002B80000E100E080B582B000AF78607B68013B68
:1002C800B3F1807F01D301230FE00A4B7A68013A2A
:1002D8005A604FF0FF300F21FFF7C2FF054B002295
:1002E8009A60044B07221A60002318460837BD4657
:1002F80080BD00BF10E000E080B588B000AF2048A6
:1003080000F0BAFB07F10C03184600F0A5F93A69AA
:100318001C4BA3FB02139B091846FFF7CBFF0820D1
:10032800012100F043FA4FF480537B6001233B72B4
:100338000023BB7203237B720023FB723B1D124810
:10034800194600F0DFF80023FB610F484FF4805195
:1003580000F074F94FF4FA7000F01AF80A484FF4F4
:10036800805100F05DF94FF4FA7000F011F8FB6964
:100378000133FB610548F96900F03CFBE5E700BF84
:1003880050600008D34D6210000C02406460000801
:1003980080B483B000AF78607A68064B1A6000BFFB
:1003A800044B1B68002BFBD10C37BD465DF8047B62
:1003B800704700BFAC08002080B400AF064B1B6834
:1003C800002B04D0044B1B685A1E034B1A60BD4611
:1003D8005DF8047B704700BFAC08002080B500AF13
:1003E800FFF7EAFF80BD00BF80B584B000AF78603A
:1003F800144B1B68002B02D1124B134A1A60114B85
:100408001B68FB607B68033323F003037B600D4BA1
:100418001A687B681A440D4B9A4207D900F0E4FA2F
:1004280003460C221A604FF0FF3306E0054B1A68AA
:100438007B681A44034B1A60FB6818461037BD46A0
:1004480080BD00BFB0080020F008002000FC01209B
:1004580080B584B000AFF860B9607A60FB68012BA2
:1004680005D1B868796800F009F8034601E04FF053
:10047800FF3318461037BD4680BD00BF80B485B035
:1004880000AF786039601C4B1B68002B02D11A4BF7
:1004980001221A600023FB6023E0184B1B6803F05D
:1004A8000103002B01D1FB6820E0154B1B6803F00A
:1004B8000103002B01D1FB6818E000BF4FF0604337
:1004C8001B78DBB2DBB203F00103002BF6D04FF050
:1004D80060427B68591C79601B781370FB68013394
:1004E800FB60FA683B689A42D7DB3B6818461437CA
:1004F800BD465DF8047B7047B4080020800E00E01C
:10050800000E00E080B487B000AF78603960002347
:100518007B6100233B610023FB6000237B6176E065
:100528007B69012202FA03F33B613B681A683B6965
:100538001340FB60FA683B699A4265D17B681A6888
:100548007B695B00032101FA03F3DB431A407B68F4
:100558001A607B681A683B681B7919467B695B00DF
:1005680001FA03F31A437B681A603B681B79012B75
:1005780003D03B681B79022B2ED17B689A687B6974
:100588005B00032101FA03F3DB431A407B689A609E
:100598007B689A683B685B7919467B695B0001FA5E
:1005A80003F31A437B689A607B685A687B699BB23D
:1005B800012101FA03F3DB431A407B685A607B6828
:1005C8005A683B689B7919467B699BB201FA03F329
:1005D8009BB21A437B685A607B68DA687B699BB276
:1005E8005B00032101FA03F3DB431A407B68DA60FE
:1005F8007B68DA683B68DB7919467B695B0001FA3E
:1006080003F31A437B68DA607B6901337B617B699A
:100618000F2B85D91C37BD465DF8047B704700BF9A
:1006280080B483B000AF78600B467B807B687A88A3
:100638001A830C37BD465DF8047B704780B483B0DD
:1006480000AF78600B467B807B687A885A830C37CA
:10065800BD465DF8047B704780B489B000AF786010
:100668000023BB6100237B610023FB6102233B6104
:100678000023FB600223BB60484B9B6803F00C031C
:10068800BB61BB69042B07D0082B09D0002B3FD1D5
:100698007B68434A1A603FE07B68424A1A603BE045
:1006A8003E4B5B6803F480039B0DFB603B4B5B6830
:1006B80003F03F03BB60FB68002B0DD0394ABB68D1
:1006C800B2FBF3F2354B596847F6C0730B409B09F0
:1006D80003FB02F3FB610CE0314ABB68B2FBF3F2A7
:1006E8002E4B596847F6C0730B409B0903FB02F376
:1006F800FB612A4B5B6803F440331B0C01335B003E
:100708003B61FA693B69B2FBF3F27B681A6003E06C
:100718007B68234A1A6000BF204B9B6803F0F003F4
:10072800BB61BB691B09BB611F4ABB6913441B78CA
:10073800DBB27B617B681A687B69DA407B685A6048
:10074800164B9B6803F4E053BB61BB699B0ABB6112
:10075800154ABB6913441B78DBB27B617B685A6816
:100768007B69DA407B689A600C4B9B6803F46043B2
:10077800BB61BB695B0BBB610B4ABB6913441B784C
:10078800DBB27B617B685A687B69DA407B68DA6038
:100798002437BD465DF8047B704700BF003802402F
:1007A8000024F40000127A000000002080B483B016
:1007B80000AF78600B46FB70FB78002B06D0094B26
:1007C800084A116B7A680A431A6306E0054B054A22
:1007D800116B7A68D2430A401A630C37BD465DF83C
:1007E800047B70470038024080B582B000AF154ADC
:1007F800154BD31A9B103B6000237B6007E0124B1C
:100808007A6853F8223098477B6801337B607A68AE
:100818003B689A42F3D30D4A0D4BD31A9B103B60A9
:1008280000237B6007E00A4B7A6853F82230984728
:100838007B6801337B607A683B689A42F3D3083758
:10084800BD4680BD6802000864020008680200080E
:100858006802000880B582B000AF0B4A0B4BD31A70
:100868009B103B603B687B6008E07B685A1E074B27
:1008780053F8223098477B68013B7B607B68002BEC
:10088800F3D10837BD4680BD680200086802000839
:1008980080B483B000AF7860FEE700BF80B500AFDA
:1008A800114B114A126842F001021A600E4B0022E5
:1008B8009A600D4A0C4B1B6823F0847323F4803331
:1008C8001360094B094A5A60074B074A126822F419
:1008D80080221A60044B0022DA6000F00BF8044B07
:1008E8004FF000629A6080BD00380240103000244A
:1008F80000ED00E080B483B000AF00237B600023EC
:100908003B60354B344A126842F480321A60324BED
:100918001B6803F400333B607B6801337B603B68F2
:10092800002B03D17B68B3F5A04FF0D12A4B1B688D
:1009380003F40033002B02D001233B6001E00023C5
:100948003B603B68012B42D1234B234A126C42F097
:1009580080521A64214B214A126842F440421A60BC
:100968001D4B1D4A92689A601B4B1B4A926842F4C1
:1009780000429A60184B184A926842F4A0529A6052
:10098800154B174A5A60144B134A126842F080728A
:100998001A6000BF104B1B6803F00073002BF9D0DE
:1009A800104B40F205721A600B4B0B4A926822F00A
:1009B80003029A60084B084A926842F002029A6061
:1009C80000BF054B9B6803F00C03082BF9D10C37CB
:1009D800BD465DF8047B7047003802400070004057
:1009E80008544007003C0240014B1868704700BF9C
:1009F800380400200FB400B5074A83B004AB106870
:100A080053F8042B8168019300F06EF803B05DF889
:100A180004EB04B0704700BF38040020F0B504466A
:100A280089B008460D4600F02FF8A368114F9A893F
:100A38000495022100F1010E012604AD02919104F2
:100A48000590CDF80CE006970796019506D4596EE7
:100A580042F4005221F400519A8159662046194601
:100A680001AA02F095FD00280CBF0A204FF0FF30C4
:100A780009B0F0BD74600008024B01461868FFF722
:100A8800CDBF00BF3804002020F0030110F00300A0
:100A9800C0F1000051F8043B00F1040C4FEACC0C03
:100AA8006FF000021CBF22FA0CF213434FF0010C46
:100AB8004CEA0C2C4CEA0C4CA3EB0C0222EA030285
:100AC80012EACC1204BF51F8043B0430F4D013F0FE
:100AD800FF0F1FBF013013F47F4F013013F47F0F56
:100AE80018BF0130704700BF2DE9F04FC9B01C4650
:100AF80089460A920D9002F005FF00681590FFF7ED
:100B0800C3FF0D9D18900F941DB1AB6B002B00F027
:100B18000981B9F80C2093B299040AD4D9F8641061
:100B280042F4005321F40051A9F80C30C9F86410BC
:100B38009BB21A0740F1C080D9F81020002A00F0B3
:100B4800BB8003F01A030A2B00F0C28038ACA4461D
:100B580008942B9400250024CDE916450023119311
:100B68002D932C931A931993109366460A9D2B780C
:100B7800002B00F0DB80252B00F0D8806A1C02E0F7
:100B8800252B00F08B80144601322378002BF7D1F7
:100B98000A98251A7DB12C9B2D9A0A98306001334A
:100BA8002A44072B75602D922C9300F3A4800836F5
:100BB8001099294410912378002B00F0A480002379
:100BC800651C94F801808DF88F304FF0FF341A4679
:100BD8000E9309930A950B942B460133A8F1200133
:100BE800582900F2F883DFE811F03702F603F6031C
:100BF8000303F603F603F603F603F603F6033E02D1
:100C08003302F60360003503F60375037C037C03A7
:100C18007C037C037C037C037C037C037C03F6035A
:100C2800F603F603F603F603F603F603F603F603F4
:100C3800F60353039D03F6039D03F603F603F60339
:100C4800F6038D03F603F603D403F603F603F6035F
:100C5800F603F603A302F603F603C302F603F6034C
:100C6800F603F603F603F603F603F603F603F603B4
:100C78000A031C039D039D039D03D9021C03F6036D
:100C8800F603E202F603EE020A021C024B02F60326
:100C98005402F603A300F603F6037B020A99651AC9
:100CA80078E70E9C0F9164420E94099D45F0040567
:100CB800099593F8008090E70D98494601F0F2F9FC
:100CC800A0B9B9F80C3003F01A030A2B7FF43EAF31
:100CD800B9F90E30002BFFF639AF0D980A9A49463C
:100CE800234601F0A3F949B0BDE8F08F4FF0FF307B
:100CF80049B0BDE8F08F0D9849462BAA04F04CF88E
:100D080040B938AE54E72D9B23B10D9849462BAA1C
:100D180004F042F8B9F80C305B06E7D4109849B0F3
:100D2800BDE8F08F284602F099FAF2E60A9C42E7FD
:100D3800099C0A93A20640F106820F9DEB1D23F041
:100D4800070303F1080CD3E90045CDF83CC00123A3
:100D58004FF0000A8DF88FA00B99002905DBDDF80C
:100D680024C02CF0800CCDF824C054EA050040F0D3
:100D78004B830B99002940F04783002B40F0BD843A
:100D8800DDF824C01CF0010F00F0B78448AF302311
:100D980007F8413D089DEC1BDDF82CC00025644593
:100DA800A8BFA446CDF830C01495BAF1000F02D000
:100DB8000C9D01350C95099B13F00203129302D088
:100DC8000C9D02350C95DDF824C01CF0840CCDF880
:100DD8004CC040F016830E9DDDF830C0CCEB050BFF
:100DE800BBF1000F40F30D83BBF1100F2D992C9A26
:100DF800DFF828A527DD1B9710255746A2460D9C2E
:100E080006E0ABF1100BBBF1100F06F1080617DD79
:100E180001321031072A2D912C9237607560F0DD70
:100E2800204649462BAA03F0B7FF00287FF472AF8B
:100E3800ABF1100BBBF1100F2D992C9A38AEE7DCF3
:100E48005446BA461B9F01320BEB010C072ACDF81A
:100E5800B4C02C9286E8000C00F39E849DF88FA005
:100E68000836BAF1000F0FD02C9B01330CF1010C9E
:100E78000DF18F010122072BCDF8B4C02C9386E821
:100E8800060000F320840836129B73B12C9B0133B3
:100E98000CF1020C24A90222072BCDF8B4C02C9324
:100EA80086E8060000F31C840836139D802D00F0A8
:100EB8004C830B9A151B002D3DDD102D2C9BDFF864
:100EC80060A42CDD51460B94AA464FF0100B6246E5
:100ED8000D9C0D4606E0AAF1100ABAF1100F06F1B2
:100EE800080617DD01331032072B2D922C9386E864
:100EF8002008F0DD204649462BAA03F04DFF0028C4
:100F08007FF408AFAAF1100ABAF1100F2D9A2C9BA2
:100F180038AEE7DC94460B9C2A4655469246013388
:100F2800AC44072BCDF8B4C02C93C6F800A075606C
:100F380000F3BD830836099DEB0500F1A6822C9BC2
:100F480037600133A444072BCDF8B4C074602C93E8
:100F580000F397830836099C620740D50E9D0C98CC
:100F68002C1A002C3BDD102C2C9BDFF8B0A322DDC3
:100F780010256246DDF83480574604E0103C102CFA
:100F880006F1080615DD01331032072B2D922C933C
:100F980037607560F2DD404649462BAA03F0FCFE37
:100FA80000287FF4B7AE103C102C2D9A2C9B38AE3D
:100FB800E9DC9446BA460133A444072BCDF8B4C003
:100FC8002C93C6F800A0746009DD0D9849462BAA39
:100FD80003F0E2FE00287FF49DAEDDF8B4C0109C5B
:100FE8000C980E9DA842ACBF241864191094BCF14B
:100FF800000F40F0528300232C9338AEB6E5DDF89D
:1010080024C00A931CF0200300F0CE810F9CE31D3E
:1010180023F0070303F108050F95D3E900450023E2
:1010280096E60F9ADDF824C00A93151D30234FF079
:1010380078084CF0020CB7488DF890300F9514687A
:10104800CDF824C000258DF891801A9002237FE600
:1010580093F800802B22C0E593F80080002A7FF4E3
:10106800BCAD2022B9E50F9C0F9D24680E94002C7E
:1010780005F10401FFF615AE0F9193F80080ACE579
:10108800DDF824C04CF0200CCDF824C093F8008083
:10109800A3E50F9C0A9327684FF0000A8DF88FA0EC
:1010A800251D002F00F06B860B9C002C3846C0F2E3
:1010B80016865146224602F035FF002800F0AB861E
:1010C8000B9C0F95C01BA042B8BF044624EAE475E8
:1010D800CDF82CA0CDF850A00C959DF88FA064E613
:1010E800099D8C4C0A93AF061A948DF88F2047D52A
:1010F800DDF83CC00CF1070323F0070303F10804F3
:101108000F94D3E90045DDF824C01CF0010F00F06E
:10111800F88254EA050000F0F48230234CF0020C07
:101128008DF890308DF89180CDF824C002230FE619
:10113800DDF824C00A934CF0100CCDF824C0099CAB
:10114800A2063FF5FAAD099CE30600F13483DDF809
:1011580024C01CF0400F00F02E83DDF83CC0BCF822
:1011680000400CF1040C00250123CDF83CC0EFE54C
:10117800099D694C0A93AF068DF88F201A94B7D44D
:10118800099DED0640F1EC84DDF83CC0DCF8004038
:101198000CF1040CCDF83CC00025B4E7DDF824C000
:1011A8004CF0400CCDF824C093F8008015E593F876
:1011B8000080B8F16C0F194600F07C85099D45F058
:1011C8001005099509E5DDF824C00A931CF0200FE5
:1011D8008DF88F2000F0A8840F9C2168109CE517DB
:1011E8002B460F9D224604350F95C1E90023BDE427
:1011F800099D45F00105099593F80080EDE40F9AE3
:101208000F9D0A9312688DF8B82000230124043535
:101218009A460C940F958DF88F300B9314932EAF3C
:10122800C9E5099C0A93A3068DF88F203CD50F9D2C
:10123800E91D21F00701D1E9002308310F91144677
:101248001D46002A73F10000C0F2D1839DF88FA0DB
:10125800012381E593F80080B8F12A0F03F101001A
:1012680000F0BD86A8F13001092998BF002300F2DB
:101278001B8610F8018B03EB830301EB4303A8F1F2
:1012880030010929F5D943EAE3730B930346A5E432
:10129800DDF824C00A934CF0100CCDF824C0099C4A
:1012A8008DF88F20A306C2D4DDF824C01CF0100FDF
:1012B80040F0B382099C670640F1AF82DDF83CC07C
:1012C800BCF900400CF1040CE51722462B46CDF87A
:1012D8003CC0B6E7099D45F08005099593F8008064
:1012E8007BE40024A8F130010E94204613F8018B0A
:1012F80000EB800001EB4000A8F130010929F5D985
:101308000E906BE4099D45F00805099593F8008057
:1013180063E400BFAC60000898600008CC60000877
:10132800786000080F9D099C0A93EB1D25078DF82E
:101338008F2023F0070340F10B84D3E90045CDE962
:10134800164503F1080CCDF83CC0DDE9160103F0A1
:1013580069FC0128DDE9160140F0538300220023CF
:1013680004F024FB002840F03C859DF88FA003255D
:101378000C95099D9E4F9F4B25F0800500240995EB
:1013880000250B94B8F1470FD8BF1F4603241495C6
:101398000BE5099D0A9345F010050995DDF824C071
:1013A8001CF020037FF432AEDDF824C01CF01002DC
:1013B80040F03F82DDF824C01CF0400300F0398281
:1013C800DDF83CC0BCF800400CF1040C13460025C5
:1013D800CDF83CC0BCE40A938DF88F20B8F1000F1B
:1013E8003FF491AC00234FF0010C9A46CDF830C081
:1013F8008DF8B8808DF88F300B93149364462EAF18
:10140800D9E4DDF8B4C02CE5012B00F0E380022B11
:101418000DF1DF0318D1DDF868C0194604F00F009C
:10142800220942EA05720F462B091CF80010397090
:1014380052EA030014461D4607F1FF31EED1089D1C
:10144800CDE91E23EC1BA7E4E00840EA457004F050
:101458000702E908303250EA010C1F461A700446A8
:101468000D4603F1FF33EFD1099CCDE91C01E007DC
:10147800394640F1B880302A00F0B580089D1F46F3
:101488003023EC1B01F8013C86E4B8F1650F40F30A
:10149800B780DDE9160100220023CDF81CC004F056
:1014A8007BFADDF81CC0002800F02E812C9B524AE4
:1014B800326001330CF1010C0122072BCDF8B4C0C6
:1014C8002C93726000F36C830836259B119CA34211
:1014D80003DB099DEF077FF53EAD2C9B189D159CFE
:1014E80034600133AC44072BCDF8B4C075602C933D
:1014F80000F3E9830836119D6C1E002C7FF72BAD95
:10150800102C2C9BDFF8F4A040F39C811025624638
:10151800DDF83480574604E00836103C102C40F3C0
:101528008F8101331032072B2D922C933760756011
:10153800F2DD404649462BAA03F02EFC00287FF432
:10154800E9AB2D9A2C9B38AEE7E70E980C99451A13
:10155800002D7FF7AEAC102D2C9BDFF8A0A02CDD62
:1015680051461294AA464FF0100B62460D9C0D4648
:1015780006E0AAF1100ABAF1100F06F1080617DD05
:1015880001331032072B2D922C9386E82008F0DDCA
:10159800204649462BAA03F0FFFB00287FF4BAAB8C
:1015A800AAF1100ABAF1100F2D9A2C9B38AEE7DC7D
:1015B8009446129C2A46554692460133AC44072B62
:1015C800CDF8B4C02C93C6F800A0756000F3028271
:1015D80008366EE4002D08BF0A2C80F03F8148AF22
:1015E800303407F8414D089DEC1BFFF7D5BB00BF11
:1015F8008C60000888600008C860000878600008EF
:10160800119C012C2C9C40F3A78101340CF101059D
:101618000123072C2D952C943760736000F3B78154
:10162800083618981599316001340544072C2D9512
:101638002C94706000F3C2810836DDE9160100229F
:10164800002304F0A9F9002840F0BD80119A013464
:10165800531E01371D44072C2C942D953760736059
:1016680000F389810836DDF864C00134AC44199D63
:10167800CDF8B4C027AB072C2C9486E828007FF758
:1016880069AC0D9849462BAA03F086FB00287FF425
:1016980041ABDDF8B4C038AE5DE40D9849462BAADD
:1016A80003F07AFB00283FF4A6ACFFF733BB0D9894
:1016B80049462BAA03F070FB00287FF42BABDDF81A
:1016C800B4C038AE37E40D9849462BAA03F064FB42
:1016D80000287FF41FABDDF8B4C038AEFFF7D4BBE9
:1016E8000D9849462BAA03F057FB00287FF412AB4C
:1016F800DDF8B4C038AEFFF7D8BB0B9C38AFFFF7A6
:101708004BBB0223FFF724BB259B002B40F35482DD
:10171800119C149DDDF84480AC42A8BF2C46002CD7
:10172800B8440BDD2C9B37600133A444072BCDF85C
:10173800B4C074602C9300F3FB820836149D24EA2D
:10174800E4742C1B002C40F3B180102C2C9BDFF888
:10175800F0A640F3188251461025BA466246DDF8D5
:1017680034B00F4604E00836103C102C40F30782D2
:1017780001331032072B2D922C9337607560F2DD00
:10178800584649462BAA03F007FB00287FF4C2AA53
:101798002D9A2C9B38AEE7E70D9849462BAA03F003
:1017A800FBFA00287FF4B6AA9DF88FA0DDF8B4C034
:1017B80038AEFFF756BB0F9D2C6804350F950123F3
:1017C8000025FFF7C5BA119B5F1E002F7FF74BAFAF
:1017D800102FDFF86CA640F3E6804FF01008DDF814
:1017E80034B004E00836103F102F40F3DC80013499
:1017F8001035072C2D952C94C6F800A0C6F8048047
:10180800F0DD584649462BAA03F0C6FA00287FF4B3
:1018180081AA2D9D2C9C38AEE5E70F9DDDF83CC0D4
:101828002C680CF1040CE517CDF83CC022462B4679
:1018380007E50F9D2C6804350F950025FFF788BA3A
:101848009446BA460133A444072BCDF8B4C02C9370
:10185800C6F800A074607FF77DAB12E70DF1DF0BCF
:10186800204629460A22002304F0F0F830328BF88B
:101878000020204629460A22002304F0E7F80446FF
:101888000D4654EA050C5F460BF1FF3BE8D1089D75
:10189800EC1BFFF781BA0D9849462BAA03F07CFA96
:1018A80000287FF437AADDF8B4C038AE149D259C13
:1018B8002F44119DAC4240DB099DE8073DD41198A7
:1018C800C7EB0805041BAC42B8BF2546002D0BDD4D
:1018D8002C9B37600133AC44072BCDF8B4C075603E
:1018E8002C9300F35B82083625EAE575641B002C0F
:1018F8007FF731AB102C2C9BDFF844A5A2DD102517
:101908006246DDF83480574603E00836103C102C58
:1019180096DD01331032072B2D922C9337607560BA
:10192800F3DD404649462BAA03F036FA00287FF437
:10193800F1A92D9A2C9B38AEE8E72C9B159D3560B4
:10194800189D75600133AC44072BCDF8B4C02C93B7
:1019580000F308820836B2E7099DE9073FF555AE5E
:1019680001340CF101050123072C2D952C943760C7
:1019780073607FF777AE0D9849462BAA03F00CFAEF
:1019880000287FF4C7A92D9D2C9C38AE6BE60D98D6
:1019980049462BAA03F000FA00287FF4BBA92D9D25
:1019A8002C9C38AE3DE601343D44072C2D952C94F3
:1019B800C6F800A077607FF755AEDCE70D9849467A
:1019C8002BAA03F0E9F900287FF4A4A92D9D2C9CEB
:1019D80038AE32E60D9849462BAA03F0DDF9002807
:1019E8007FF498A9DDF8B4C038AEFFF762BA4FF0BB
:1019F8002D0A644265EB45058DF88FA00123FFF79A
:101A0800ABB903F00FF9002800F023810B9D0135D5
:101A180028F0200A00F07582BAF1470F04D10B9D17
:101A2800002D08BF01250B95DDE91623DDF824C03C
:101A3800002B4CF4807CCDF848C0C0F25982DDE917
:101A48001645CDE920454FF0000BB8F1660F00F0C0
:101A58003D82B8F1460F00F09582BAF1450F0ABFF2
:101A68000B9C0B9D651C022025A926AA29AB8DE895
:101A780021000392049302910D98DDE9202300F0E0
:101A88000BFCB8F1670F074602D0B8F1470F05D134
:101A9800DDF824C01CF0010F00F04482BAF1460FB3
:101AA80007EB050400F0B081DDE9200100220023E6
:101AB80003F072FF002840F0A581299B9C4206D9BB
:101AC80030215A1C29921970299B9C42F9D8DB1B9A
:101AD800BAF1470F119300F07C81B8F1650F40F31C
:101AE8009D82B8F1660F00F00F82259C1494119C1A
:101AF800149DAC4200F3DD81DDF824C01CF0010F19
:101B080040F05C8225EAE5732C464FF06708BBF18C
:101B1800000F40F06C81129D0C930995CDF82CB004
:101B28009DF88FA0FFF741B9DDF824C01CF0100F15
:101B380040F0AB80DDF824C01CF0400F00F03D8180
:101B48000F9C109D236804340F941D80FFF70EB876
:101B5800D3E900450833CDE916450F93FFF7F5BBE8
:101B6800099C640640F18A80DDF83CC0BCF800405E
:101B78000CF1040C0025CDF83CC0FFF7C4BA94461C
:101B88003A46574692460133A444072BCDF8B4C0D1
:101B98002C93C6F800A074603FF77DAE083685E642
:101BA8000D9849462BAA03F0F7F800287FF4B2A84D
:101BB800DDF8B4C038AE88E42C9A9D493160013212
:101BC8000CF1010C0121072ACDF8B4C02C927160E8
:101BD80063DC08361C462CB9119D1DB9099DED071B
:101BE8007FF5B9A92C9B189A159D3560013362447D
:101BF800189D2D92072B75602C9300F348810836A9
:101C08006442002C40F38680102CDFF834A240F3A5
:101C18009E8051461025BA46DDF834800F4604E010
:101C28000836103C102C40F38F8001331032072BFC
:101C38002D922C9337607560F2DD404649462BAAF9
:101C480003F0AAF800287FF465A82D9A2C9B38AEDB
:101C5800E7E7099C774F784B9DF88FA00B904FF0E2
:101C6800030C24F080040994CDF830C01490B8F126
:101C7800470FD8BF1F466446FFF797B80F9D2C68DB
:101C880004350F950025FFF73EBA0F9C109D236879
:101C980004340F941D60FEF769BF0D9849462BAABE
:101CA80003F07AF800287FF435A8259CDDF8B4C045
:101CB80038AE90E7099C91F8018044F02004013384
:101CC8000994FEF78ABF0D9849462BAA03F064F8D9
:101CD80000287FF41FA8DDF8B4C038AE0BE4CDF8B7
:101CE8002CA0FEF7D1FE0F9520EAE07C0B9DCDF8E5
:101CF80030C0044614959DF88FA0FFF756B80D988C
:101D080049462BAA03F048F800287FF403A82D9A27
:101D18002C9B38AEDDF844C0119C376001339444E5
:101D2800072BCDF8B4C02C9374607FF713A9A8E4EF
:101D38000D9849462BAA03F02FF800287EF4EAAF45
:101D4800DDF8B4C038AEF9E4394657468A4601335F
:101D58002244072B2D922C93C6F800A07460CEDC89
:101D68000836D7E70D9849462BAA03F015F800283E
:101D78007EF4D0AF259CDDF8B4C038AE9FE50B9C4F
:101D88001497062C28BF062424EAE47CBA460B974D
:101D98000F95CDF830C0294FFFF707B80D98494681
:101DA8002BAA02F0F9FF00287EF4B4AF259C119904
:101DB800DDF8B4C00C1B38AE96E5DDF83CC0109CCD
:101DC800DCF800300CF1040CCDF83CC01C60FEF7C8
:101DD800CDBE259BDC1C35DB0B9C9C4232DB14936F
:101DE80085E64FF02D0A8DF88FA0FFF7C0BA129D37
:101DF80009954FF02D0A00250C938DF88FA00B95AF
:101E0800FEF7D6BF234662E63B78302B00F0C18050
:101E1800259D2C4448E624EAE47CCDF830C00B9C90
:101E28000F950B9014909DF88FA0FEF7BEBF00BFD2
:101E3800C86000089460000890600008C06000084E
:101E480078600008A8F10208013B002B2593BABF6F
:101E58005B422D222B22092B8DF89C808DF89D202A
:101E680062DC303330228DF89F308DF89E2028AB0D
:101E7800119D119C27AA9A1A012D1992144440F316
:101E8800A4800134002524EAE47314953FE60D98F4
:101E980049462BAA02F080FF00287EF43BAF259C20
:101EA8002D9A2C9B38AEABE6002403460B94FEF724
:101EB80095BE149C119D002CD4BFC4F102040124CA
:101EC8002C4424EAE4734FF0670820E60B9C019445
:101ED800032025A926AA29AB009003920493029116
:101EE8000D98DDE9202300F0D7F90B9D0746D5E5CD
:101EF80017991698209001F1004121914FF02D0B70
:101F0800A3E506240B948FE5259D1495002D0B9CC5
:101F180078DD002C4BD1099DE80748D4149C24EAAD
:101F2800E473F4E5299BD2E50DF1AA003E4DDA17DA
:101F380085FB0351C2EBA10101EB81040246A3EB2F
:101F4800440303F13000092910700B4602F1FF30F9
:101F5800ECDC01F130030DF1AB04D9B2844202F894
:101F6800011C5DD90DF19D00134601E013F8011B1A
:101F7800A34200F8011FF9D10DF5907CC2EB4C0388
:101F8800F63B75E70B9D0195032025A926AA29ABE9
:101F9800A2E7DDE920010022002303F0FDFC002870
:101FA8007FF436AFC5F1010525952C447CE50B9DE2
:101FB8006C1C149D2C4424EAE473A8E5149D6C1C45
:101FC80024EAE4734FF06708A1E5DDF824C01CF0AB
:101FD80001037FF456AF149324EAE47397E50F9D49
:101FE800DDF83CC02D6893F801800B950CF10401D5
:101FF800002D0F910346BEF6F0AD4FF0FF340B9461
:10200800FEF7EBBD2CB9099DE90702D401231C4654
:102018007DE50B9DAC1C24EAE47378E5259B13E76A
:102028000DF19E0324E700BF676666662DE9F0435D
:102038000C46ADF26C4DB1F80C90E769496EB4F8F6
:102048000E8019911AAD4FF480664FF0000E079775
:1020580029F00209676A0095694604950296059673
:10206800ADF80C90ADF80E800997CDF818E006464B
:10207800FEF73AFD051E07DB3046694601F0D2F847
:10208800002818BF4FF0FF35BDF80C305B0603D5AC
:10209800A38943F04003A38128460DF26C4DBDE8A7
:1020A800F08300BF2F4B1B6870B506460C4613B172
:1020B8009A6B002A36D0A589ABB219070CD52269CC
:1020C800AAB113F001011ED0636900215B42A3612C
:1020D800A160F2B1002070BDDA063BD55B0725D4BC
:1020E800226945F00803A3819BB2002AE9D103F4D1
:1020F8002071B1F5007FE4D03046214601F006FC9E
:10210800A3892269DDE7980758BF6169A160002AA1
:10211800E0D1A3891A06DDD543F04003A3814FF02F
:10212800FF3070BD184601F099F8C4E7216B49B13A
:1021380004F14003994203D0304601F05BF9A589C8
:102148000023236325F02405002322696360ADB2D0
:102158002260C6E745F04005092333604FF0FF30A1
:10216800A58170BD380400202DE9F04F03690D6981
:102178009D4283B0834600F38B80013D01F1140436
:1021880000F1140A54F825205AF825300132B3FB1F
:10219800F2F8AA00914600925244A1440192B8F183
:1021A800000F3DD04FF0000E7046224653468C4635
:1021B80052F8046B1968B7B2360C07FB08EE06FB39
:1021C80008F606EB1E461FFA8EF7C71BB0B217FAC1
:1021D80081F7C0EB114000EB2740BFB247EA004748
:1021E800914543F8047B4FEA20404FEA164EDFD270
:1021F800009A5AF80230614693B9019A131F9A451A
:102208000CD252F8043C4BB9A2F1080302E01A6858
:10221800043B1AB99A4505F1FF35F8D3CBF81050AD
:10222800584602F02DFA00282EDB08F10108534623
:10223800002254F8046B1868B1B2521A360C12FA1C
:1022480080F1C6EB104202EB214289B241EA024119
:10225800A14543F8041B4FEA2242EAD25AF8252046
:102268000AEB850382B91A1F92450BD253F8042C46
:1022780042B9083B02E01A68043B1AB99A4505F1CD
:10228800FF35F8D3CBF81050404603B0BDE8F08FC7
:10229800002003B0BDE8F08F2DE9F04F016C9BB032
:1022A8000446279D92469B4649B1436C4B600122E8
:1022B80002FA03F38B6001F0EBFF00232364BBF108
:1022C800000FD94633DB00232B60A54B1A4609EAD9
:1022D8000303934214D0504659460022002303F0CA
:1022E8005BFB804648B3269E289D01233360002D62
:1022F80000F0C9809B48286001381BB0BDE8F08F0A
:10230800269D42F20F732B60BAF1000F00F0A480F3
:102318009548289E002EF0D0C378002B00F0B58099
:1023280000F10803289D2B601BB0BDE8F08F012346
:102338002BF000492B60CB46C7E719AA18AB8DE8EC
:102348000C00204652465B4602F028FA5FEA19550F
:102358000A9040F08A80189F199D6FF482633D446B
:102368009D42C0F294821F3305F212425B1B09FAA8
:1023780003F32AFA02F243EA020003F02FF80126D7
:10238800013DB846A1F1F87116960022774B02F08C
:10239800E7FE6DA3D3E9002303F096F86CA3D3E915
:1023A800002302F0DFFE064628460F4603F026F813
:1023B80069A3D3E9002303F087F802460B463046A9
:1023C800394602F0CFFE06460F4603F017FB3946A2
:1023D800079000223046002303F0E8FA002840F076
:1023E8002882079E162E00F22182614B03EBC6035A
:1023F800D3E9000152465B4603F0F6FA002800F0E4
:102408004B82013E079600260E96C5EB0805013D56
:10241800069500F1258200250895079E002EC0F23A
:102428001682069D0D963544002606950C96249D29
:10243800092D2CD8052DC4BF043D2495249EA6F152
:102448000203CCBF00250125032B22D8DFE813F0B7
:10245800B7039E02C0039A04464A434BC9F31300CC
:1024680000280CBF1046184653E7CBF3130343F07C
:102478007F51CDF858805046A5F2FF3541F4401100
:10248800DDF8608081E73C4837E7C31C4AE7002550
:102498002495002565642946204601F0D3FE4FF0B7
:1024A800FF390126099025952064CDF83C900B96BC
:1024B800199B002BC0F2D280079E0E2E00F3CE800F
:1024C8002B4B03EBC603D3E90001CDE904012599A1
:1024D8000029C0F28083DDE904235946504603F001
:1024E8001DF903F08BFA054602F088FFDDE90423A5
:1024F80002F0EAFF02460B465046594602F030FE0B
:10250800099A05F13003B9F1010F06460F46137019
:1025180002F1010B64D00022184B02F0D5FF002213
:10252800002306460F4603F037FA002840F0818062
:10253800DDF82480099D0394C844DDE904AB05F166
:10254800020928E0AFF3008061436F63A787D23F99
:10255800B3C8608B288AC63FFB799F501344D33F8A
:102568000000F07FC9600008E86000080000F83F3C
:1025780008610008DC600008C8600008000024400A
:1025880002F0A2FF0022002306460F4603F004FAD9
:10259800002840F0C18352465B463046394603F076
:1025A800BDF803F02BFA054602F028FF52465B46B9
:1025B80002F08AFF02460B463046394602F0D0FD4B
:1025C80005F1300EC14509F801EC4C4606460F46A8
:1025D8004FF00002A74B09F10109D1D1A346039C92
:1025E80032463B463046394602F0BCFD06460F46A9
:1025F8003246DDE904013B4603F0D8F940B9DDE98C
:10260800040132463B4603F0C7F990B1EB0710D5F9
:102618001BF8015C099A05E09A4200F0288413F837
:10262800015C9B46392D0BF1FF33F5D06A1CD2B201
:102638001A7020460A9901F02BFE079E269D731CEE
:10264800289E00228BF800202B60002E00F02583A6
:102658000998C6F800B01BB0BDE8F08F0B9D002D9F
:1026680000F00381249E012E40F3DC820C9E09F1C8
:10267800FF37BE42C0F28983F71BB9F1000FC0F2E1
:102688008684089D4B46089E1E440896069E204652
:102698001E440121069601F09FFE064665B1069884
:1026A800002809DD03460899AB42A8BF2B46C91A82
:1026B800C01A0891ED1A06900C9A002A1DDD0B9B92
:1026C800002B00F05883002F11DD31463A46204692
:1026D80001F02AFF064631460A9A204601F086FE96
:1026E8000A998046204601F0D3FDCDF82880DDF810
:1026F80030E0BEEB070240F08F822046012101F056
:102708006BFE80460D98002805DD414620460D9A4F
:1027180001F00AFF80462499012940F3C18200276D
:102728000D98002840F0AF820120069B034413F067
:102738001F0300F0A180C3F12002042A40F3B584EE
:102748000899069AC3F11C0319441A4408911D44B8
:1027580006920899002905DD0A99089A204601F091
:1027680031FF0A90069A002A04DD4146204601F00E
:1027780029FF80460E9B002B40F06A82B9F1000FBA
:1027880040F3A6820B98002840F088800B9D0A9F92
:10279800DDF824B006E0394620460A22002301F07D
:1027A80081FD074638464146FFF7DEFC30300BF81E
:1027B80005000135A945EEDCDDF824B00A9782460C
:1027C800B9F1010FACBFCB440BF1010B00250A99FD
:1027D8000122204601F0F6FE41460A9001F050FF22
:1027E800002840F309831BF8012C099905E0994258
:1027F80000F08B8213F8012C9B46392A0BF1FF332A
:10280800F5D001321A704146204601F041FD002EF4
:102818003FF40FAF2DB1B54203D02946204601F051
:1028280037FD3146204601F033FD02E701260E96BA
:10283800EBE5079802F0E2FD32463B4603F0ACF8C0
:1028480000287FF4CEAD079E013E0796C9E5079E96
:10285800089DAD1B0895754200260C950D96E6E57A
:102868006D42002608950696D7E50C9F089D0B9E9D
:1028780014E700BF000024401C23DDF820E0069880
:102888009E441844CDF820E01D44069061E7A7480F
:10289800401B0AFA00F070E50E90B6E5002D05DD44
:1028A80031462A46204601F08DFE0646002F40F0AC
:1028B800E8823746099D09984D4408950AF00105B4
:1028C8000B95DDF82890451C0AE001F0EBFC394631
:1028D80006460A222046002301F0E4FC074601359B
:1028E80041464846FFF740FC31468346484601F0DA
:1028F800C7FE414603903A46204601F0E5FEC2680D
:10290800691E03460BF1300A0691002A40F09381B4
:1029180019464846029301F0B3FE029B0246194647
:102928002046029201F0B4FC029A2AB9249B1BB9F2
:102938000B98002800F09183039B002BC0F234828F
:1029480005D1249818B90B99002900F02D82002A86
:1029580000F3AB82DDF820E005F801AC7545AB4625
:1029680000F0B38249460A220023204601F09AFC6F
:10297800BE428146314620464FF00A024FF000031E
:10298800A3D101F08FFC06460746A8E700260B9660
:10299800079EDDF894E0B6440EF10109B9F1000F85
:1029A800CDF83CE04E4640F350810021172E61647B
:1029B8000AD9012204235B0003F11400B042114636
:1029C80002F10102F7D96164204601F03BFC0E2EAA
:1029D800099020643FF66CAD002D3FF469AD079D6A
:1029E800002DCDE912AB40F31B82514B05F00F02CD
:1029F80003EBC2032D11D3E90067EB0640F1CD814B
:102A08004C4B50465946D3E9082302F087FECDE9DE
:102A1800100105F00F054FF003088DB1DFF814A180
:102A280030463946EE0705D5DAE9002308F10108F2
:102A380002F04AFD6D100AF1080AF3D106460F4666
:102A4800DDE9100132463B4602F068FE82468B46BD
:102A58000E9D45B1504659460022374B02F0A6FF5D
:102A6800002840F0A982404602F0C8FC52465B4666
:102A780002F02AFD0022314B02F074FB0646A1F158
:102A88005077B9F1000F00F05A81079D1795C84695
:102A98000B9D002D00F02282254B294903EBC8032A
:102AA80053E90223002002F039FE32463B4602F089
:102AB80057FBCDE910015946504602F09FFF0546E5
:102AC80002F09CFC02460B465046594602F048FB71
:102AD8003035099ECDE90401EDB23570DDE910010C
:102AE800DDE9042306F1010B02F07EFF002840F027
:102AF800A982DDE9042300200F4902F031FB0246D8
:102B08000B46DDE9100102F06FFF002840F0A082BB
:102B1800B8F1010F40F38081B044CDF85090A2463F
:102B2800C146DDE90467DDE9104519E0EEFBFFFF6A
:102B380008610008D06100080000F03F00001C4058
:102B48000000E03F0020A84902F00AFB22462B467D
:102B580002F02CFF002840F07982CB4500F0598123
:102B6800204629460022A14B02F0AEFC00229F4BD2
:102B780004460D463046394602F0A6FC0F46064686
:102B880002F03CFF804602F039FC02460B46304614
:102B9800394602F0E5FA08F130085FFA88F822466B
:102BA8002B460BF8018B06460F4602F0FFFE324615
:102BB8003B460028C6D0179E0796544639E500269E
:102BC8000B96259800283CDD06460F908146ECE6DA
:102BD80001260B96F5E7B9F1000F3FF77CAC40F002
:102BE800C6800022824BDDE9040102F06DFC5246EA
:102BF8005B4602F0EFFEC8464E4600287CD0259D75
:102C0800DDF824B0ED4307954146204601F040FB2E
:102C1800002E7FF406AE0CE50A99204601F084FCEC
:102C28000A906AE5169D002D00F0B78103F2334340
:102C38000C9F089D27E50146204601F029FB01224B
:102C48007AE6012625960F96B14600216164BBE617
:102C58000A98414601F014FD0028BFF68FADDDF853
:102C68001CE00A990EF1FF3E20460A220023CDF807
:102C78001CE001F017FB0A900B98002840F007822F
:102C8800DDF83C907AE5D8F8103008EB8303186932
:102C980001F054FBC0F1200047E50998FFF72DBB70
:102CA800BAF1000F7FF43BADCBF31303002B40F0D8
:102CB8007B812BF000473F0D3F05002F3FF430ADDF
:102CC800089A069B0132013308920693012727E5EB
:102CD800249902297FF756ADB9F1000F8FD14146EB
:102CE8004B460522204601F0DDFA804641460A9807
:102CF80001F0C6FC002882DD079D01350795099D76
:102D080031232B7005F1010B7EE7079809993123D0
:102D1800013007900B7076E5A346039C89E4404692
:102D280002F06CFB02460B465046594602F0CCFBBB
:102D38000022304B02F016FA0646A1F150775046B1
:102D4800594600222A4B02F00BFA32463B4682468D
:102D58008B4602F049FE002840F0BC80324607F15D
:102D680000435046594602F021FE002854D04FF047
:102D78000008464643E70A990C9A204601F0D4FB1E
:102D88000A90BAE401260B9602E60C9D0D9E0C975C
:102D98007B1B1E440D9600276FE4DDE912014FF0FE
:102DA8000208CDE9100138E6002ACDF82890D94666
:102DB80011DD0A990122204601F004FC41460A90DF
:102DC80001F05EFC002840F35B81BAF1390F00F096
:102DD8001A8109F1310A069B354683F800A003F1F0
:102DE800010B3E460FE500BF0000F03F0000244005
:102DF8000000144000001C4003D11AF0010F7FF4BA
:102E0800F2AC5B469B46013B1BF8012C302AF9D0FB
:102E1800F9E4DDF850905446DDE912ABFFF748BB02
:102E2800079E7542002D00F0C280A34B05F00F02EB
:102E380003EBC203D3E90023DDE9120102F044FBEE
:102E48002D1182468B4600F02D819C4E4FF00208D2
:102E5800EA0705D5D6E9002308F1010802F034FB9A
:102E68006D1006F10806F3D182468B46F0E5079E01
:102E7800099D30222A700136312207961A70FFF711
:102E8800D8BB7168204601F0DDF933699A1C054604
:102E9800920006F10C010C3001F08CF8204629460E
:102EA800012201F08FFB074604E5BAF1390FCDF88E
:102EB800289000F0A880069D0AF101032B70354682
:102EC800069E06F1010B3E469DE43546CDF8289056
:102ED8003E467CE44FF0000846460DE7764908F187
:102EE800FF3501EBC50132463B46D1E9000110959B
:102EF80002F0EAFACDE914015946504602F07EFD87
:102F0800054602F07BFA02460B465046594602F047
:102F180027F9DDF824E03035B8F1010F06460F46F1
:102F28008EF800500EF1010B1ED0099D6B1E03EBAD
:102F3800080A0022624B02F0C7FA0F46064602F062
:102F48005DFD804602F05AFA08F1300802460B4649
:102F58003046394602F004F905F8018F5545E8D1A5
:102F6800109D06460F46AB440022564BDDE914017E
:102F780002F0F8F832463B4602F018FD00284DD022
:102F8800179E07961BF8015C099AFFF74BBB089E32
:102F98000023C9EB0605FFF776BB189B0C9F089D1D
:102FA800C3F13603FFF76FBB5746FFF7B9BBDDE93F
:102FB80012AB4FF002084BE5B9F1000F3FF4AFAE8A
:102FC8000F9E002E7FF728AF00223D4B50465946F2
:102FD80002F07AFA824608F101008B4602F00EFAF6
:102FE80002460B465046594602F06EFA0022364B0E
:102FF80002F0B8F8079DDDF83C80013D0646A1F1D6
:103008005077179544E53546069B069E099939225F
:10301800327003F1010B3E46FFF7EFBBDDE91423E5
:103028000020284902F09CF832463B4602F0DCFCBE
:1030380000283FF4F1AE5B469B46013B1BF8012C90
:10304800302AF9D0179D0795FFF7F3BA454654463D
:10305800179E0796099AFFF7E5BABAF1390FCDF826
:103068002890D0D0039B3546002B069EC8BF0BF195
:10307800310A86F800A006F1010B3E46FFF7C3BBF4
:103088007FF4A9AE1AF0010F3FF4A5AE9DE63146D4
:1030980020460A220023DDF83C9001F003F9064699
:1030A800FFF76CBB4FF00208D2E43FF452ABC3F118
:1030B8003C03FFF7E2BB00BF08610008D0610008CD
:1030C800000024400000E03F00001C40AFF30080F7
:1030D8008B899AB22DE9F0410D46110780463CD400
:1030E8006A6843F40063002AAB8159DDAC6A002C9E
:1030F8004BD09BB203F48052002192B2D8F8006002
:10310800C8F80010002A4FD02A6D5F0705D56968F6
:103118002B6B521A0BB1EB6BD21A4046E9690023AC
:10312800A047441C4AD0AA892B692B6022F400636B
:103138009BB200226A60DA04AB814CD4296BC8F8D0
:10314800006011B305F14003994202D0404600F0F7
:1031580051F900202863BDE8F0812E69AEB12C68D2
:103168002E6091070CBF6B690023A41BAB600AE0BB
:10317800324623466F6AE9694046B8470028C0EBE3
:103188000404064404DD002CF2DC0020BDE8F081D4
:10319800AB8943F04003AB814FF0FF30BDE8F081CD
:1031A800EA6B002AA2DCF0E701234046E969A04760
:1031B800431C02461ED0AB89AC6AA6E7D8F800309B
:1031C8005BB9A9896B6021F400639BB22A69AB8162
:1031D800DB042A60B2D52865B0E71D2B01D0162B79
:1031E80019D1AA892B692B6022F400620023AA81D5
:1031F8006B60A3E7D8F80030002BDCD01D2B07D07C
:10320800162B05D0AB8943F04003AB81BDE8F081B4
:10321800C8F80060B9E7AB8943F04003AB81BDE86B
:10322800F08100BF10B5044682B008B1836B53B17A
:10323800B1F90C0008B902B010BD204602B0BDE8D3
:103248001040FFF745BF019100F008F80199EFE73A
:10325800014900F027BB00BFE54E00082DE9F04FFB
:10326800846B83B00746002C65D145683348F86302
:103278000423032107F53B72C7F8E412C7F8E822D4
:10328800C7F8E04205F15C00AB812C606C60AC6073
:103298006C66EC812C616C61AC612146082200F0FF
:1032A80083FFBE68DFF898B0DFF898A0DFF8989041
:1032B800DFF89880ED6101230922C5F820B0C5F830
:1032C80024A0C5F82890C5F82C802146F381B28146
:1032D80034607460B460746634617461B4610822E7
:1032E80006F15C00019300F05FFFFD68F6611220B3
:1032F8000222C6F820B0C6F824A0C6F82890C6F85E
:103308002C802146A881EA812C606C60AC606C66D8
:103318002C616C61AC6105F15C00082200F044FF8F
:10332800019BED61C5F820B0C5F824A0C5F8289028
:10333800C5F82C80BB6303B0BDE8F08F5932000894
:10334800A14C0008C54C0008FD4C0008214D0008A0
:10335800704700BF704700BFF8B5234D0F460446BD
:1033680000F06CFFAB685E6826F00306F11B01F6FF
:10337800EF7121F47F6121F00F01A1F58057B7F5B6
:10338800805F07DB2046002101F074FCAB68334402
:10339800984204D0204600F053FF0020F8BD204694
:1033A800794201F067FC01300DD0104BAA6819680A
:1033B800F61B46F001062046C91B5660196000F04E
:1033C8003FFF0120F8BD2046002101F053FCAB6807
:1033D800C21A0F2ADEDD064D04492D6842F00102AB
:1033E800401B5A600860D5E798040020C4080020F4
:1033F800A40800202DE9F0410D460646002955D0C5
:1034080000F01CFF55F8041CDFF874C121F001031B
:10341800A5F10804E218DCF808005768904227F084
:10342800030769D011F00101576032D00021D0198B
:103438004068C00706D43B44906800294ED0D26843
:10344800C260906043F001026260E350E1B9B3F5F5
:10345800007F2DD35A0A042A6AD8980938304100C7
:103468000CEB810C4649DCF80820624566D05168AF
:1034780021F003018B4202D292689445F7D1D368B8
:10348800E360A2609C60D4603046BDE8F04100F083
:10349800D7BE55F8085C641B0CF10808A0684045C5
:1034A8002B4443D0E568C560A860C0E7BDE8F0815B
:1034B800DB080CEBC3020125DCF804009168A1606D
:1034C8009B1005FA03F31843E260CCF804009460FB
:1034D8003046CC60BDE8F04100F0B2BE294DA842AC
:1034E800ADD143F00102CCF81440CCF81040E060B4
:1034F800A0606260E350C7E71F44CB0707D455F8C4
:10350800083CE41A1F44A268E368D3609A601E4B23
:103518001B6847F001029F426260CCF80840B3D3B1
:103528001A4B30461968FFF717FFADE701217EE710
:10353800142A0CD802F15B00410091E74B68801017
:10354800012505FA00F003434B60134698E7542A17
:1035580003D8180B6E30410082E7B2F5AA7F03D872
:10356800D80B773041007BE740F254518A4203D8A8
:10357800980C7C30410073E7FC217E2070E700BF87
:1035880098040020A0040020A0080020C008002003
:103598002DE9F04F936883B0164681460C462BB34D
:1035A8008B89190726D5226922B303F0020292B249
:1035B8003568002A2CD04FF0000ADFF8E4B2D04674
:1035C800D84534BF43465B4652464846B8F1000FDB
:1035D8004FD0E169676AB847002856DDB3681B1AFF
:1035E8008244C0EB0808B360002BE9D1002003B087
:1035F800BDE8F08F48462146FEF754FD002840F00C
:103608004681A389356803F0020292B2002AD2D11A
:1036180013F0010A42D1D046B8F1000F23D09A0521
:10362800A76876D5B845C0F0A48013F4906F40F031
:10363800B2802068BB4651465A4600F055FDA26844
:103648002168D21B01EB0B03A26023604246B368DA
:103658009B1A9244C2EB0808B360002BC6D0A3891A
:10366800B8F1000FDBD1D5F800A0D5F804800835F3
:10367800D2E7D5F800A0D5F804800835A0E7484679
:103688002146FFF7CFFD002859D0A38943F0400316
:103698004FF0FF30A38103B0BDE8F08F924601924E
:1036A80093469046B8F1000F2BD0019F002F64D0AD
:1036B80020682169D4F808C06269C24534BF5346FE
:1036C800434688421F4603D99444634500F3AE80BD
:1036D800934236DB1346676AE16948465A46B8475B
:1036E800071ED2DDBAEB070A3AD0B368DB1BBB442E
:1036F800C7EB0808B360002B3FF478AFB8F1000FB0
:10370800D3D10027D5F800B0D5F804800197083543
:10371800C8E720682369984202D86369984572D23D
:10372800B84538BF47463A46514600F0DDFCA36825
:103738002268DB1B3A44A3602260002B9FD03A46E4
:1037480085E71A465946009300F0CEFC009BA16815
:103758002268C91ABAEB070A1344A1602360C4D1CE
:1037680048462146FFF75EFD00288ED1CDF804A01B
:10377800BBE720684746C3465DE758460A214246EC
:1037880000F0D0FB00287DD000F1010A0127CBEB27
:103798000A0A01978CE7226821696769C1EB020C64
:1037A80007EB47070CF1010207EBD77742447F107C
:1037B800974234BF17463A465B054DD511464846F1
:1037C800CDF800C000F012F9DDF800C083460028EB
:1037D80060D062462169CDF800C000F0EBFBA289F9
:1037E800DDF800C022F4906242F08002A2810BEB67
:1037F8000C00CCEB0702C4F810B067612060A2602F
:103808004746C34617E76FF00042904538BF424627
:1038180092FBF3F202FB03F3676AE16948465246FA
:10382800B84700287FF731AF024610E7624659468D
:10383800CDF800C000F058FCDDF800C023686344F0
:10384800236048462146FFF7EDFCDDF800C000285C
:103858007FF41BAF674645E74846CDF800C000F047
:10386800FBFFDDF800C083460028C0D14846216927
:10387800FFF7C0FDA3890C2223F080039BB2C9F88F
:10388800002003E7012708F1010A019710E74FF02C
:10389800FF30ACE60C23C9F80030A389F6E600BF78
:1038A80000FCFF7F2DE9F04110F5387788461AD0E3
:1038B80000267D68BC68013D0FD4A389012B05F162
:1038C800FF3506D9B4F90E300133204601D0C04780
:1038D80006436B1C04F16804EFD13F68002FE8D160
:1038E8003046BDE8F0813E463046BDE8F08100BF75
:1038F8000048704774040020014B1868704700BFE7
:1039080094040020004870473C040020F0B58B89DF
:103918009AB2960791B00C46054637D4B1F90E1005
:10392800002917DB01AA01F03FFB002810DB029BEE
:1039380003F47043B3F500514F424F41B3F5004FC4
:103948002CD0A38943F40063A3814FF480660BE075
:10395800A3899AB212F0800F43F40063A38114BFC5
:1039680040264FF4806600272846314600F03EF88E
:10397800A389002829D01B4AEA6343F08003A38166
:10398800206020616661A7B911B0F0BD01F1430361
:1039980001220B600B614A6111B0F0BD124AA36AA3
:1039A8009342CED1A3894FF480663343A381E66462
:1039B800DAE72846B4F90E1001F00AFB0028E3D034
:1039C800A38943F00103A381DEE79A05DCD404F15F
:1039D800430243F002030121A38122602261616155
:1039E800D2E700BF59320008FD4C00082DE9F04F1E
:1039F80001F10B05162D83B0064627D935F00705CA
:103A080027D4A94225D8304600F018FCB5F5FC7F2C
:103A180026D2C14F4FEAD50C07EBCC03DC689C4299
:103A280000F0D2816368E268A16823F003032344AD
:103A380030465D68CA6045F0010591605D6000F040
:103A4800FFFB0834204603B0BDE8F08F1025A942DB
:103A5800D9D900240C232046336003B0BDE8F08F89
:103A68005FEA552C00F08A80BCF1040F00F26081F7
:103A78004FEA951C0CF1380C4FEA4C01A64F07EBA6
:103A88008101CC68A14205D10CE0002B7ADAE46808
:103A9800A14207D0626822F00302531B0F2BF4DD0A
:103AA8000CF1FF3C0CF1010C9B4B3C6903F1080E37
:103AB800744500F07E81616821F003014A1B0F2ADA
:103AC80000F36481002AC3F814E0C3F810E06ADA4E
:103AD800B1F5007F80F03A81C90803EBC1004FEAD5
:103AE800A1085A688168A1604FF0010909FA08F82D
:103AF80048EA0202E0605A608460CC604FEAAC0396
:103B08000120984090425BD8024206D12CF0030C69
:103B1800400002420CF1040CFAD007EBCC084446F2
:103B2800E146E3689C4207D145E1002A80F25681CC
:103B3800DB689C4200F03F81596821F003014A1B71
:103B48000F2AF2DD1C46D3F80CC054F8088F591917
:103B580045F0010942F00105C3F804903046C8F861
:103B68000CC0CCF8088079613961C1F80CE0C1F863
:103B780008E04D608A5000F063FB63E77E214FF058
:103B88003F0C7BE72244E3685068A16840F00105D8
:103B9800CB6030469960556000F052FB08342046EF
:103BA80003B0BDE8F08F214430464B6843F0010371
:103BB8004B6000F045FB0834204603B0BDE8F08FA9
:103BC800BC68636823F00309A94504D3C5EB09035E
:103BD8000F2B00F39180514B514A19681368013338
:103BE80005EB010A04EB090B00F061810AF5805A24
:103BF8000AF10F0A2AF47F6A2AF00F0A3046514662
:103C0800019201F037F8B0F1FF3F8046019A00F0C9
:103C18000081834500F2FA80DFF810C1DCF800303B
:103C2800C3455344CCF8003000F04A8112683C493F
:103C380001321BBFCBEB080B5B44C1F80080CCF80A
:103C4800003018F0070300F01381C3F10802C3F530
:103C5800805390440833C244CAF30B0ACAEB030AE0
:103C680051463046CDF804C001F004F8431CDDF895
:103C780004C000F03581C8EB0002524442F0010252
:103C8800DCF80030C7F808805344BC42C8F8042068
:103C9800CCF80030DFF894A015D0B9F10F0F40F23E
:103CA800EA806168A9F10C0222F0070201F0010E16
:103CB800A118052042EA0E0E0F2AC4F804E0486055
:103CC800886000F21181174ABC6811688B4288BF6E
:103CD8001360154A11688B4288BF1360626822F02E
:103CE80003029542C5EB020301D80F2B04DC3046D2
:103CF80000F0A6FA0024A5E6621943F0010345F096
:103D0800010565603046BA60536000F099FA0834DE
:103D1800204603B0BDE8F08F98040020C0080020BA
:103D2800A4080020BC080020B8080020C40800200F
:103D3800BCF1140F61D9BCF1540F00F28F804FEA27
:103D4800153C0CF16E0C4FEA4C0197E64B0A042B1C
:103D580058D9142B00F2AE8003F15B02500007EB38
:103D68008000DFF8BC818368834200F08A805A684B
:103D780022F00302914202D29B689842F7D1D96897
:103D88007A68E160A3608C60DC60B7E6611942F094
:103D9800010745F001056560304659611961C1F8B0
:103DA8000CE0C1F808E04F608A50083400F048FA87
:103DB80048E65A68A2E609F1010919F0030F04F16F
:103DC80008047FF4AEAE2DE004F108036469A34251
:103DD80008BF0CF1020C3FF467AE23E619441C46F9
:103DE8004868DB6854F8082F40F001054D603046FC
:103DF800D3609A6000F024FA24E60CF15B0C4FEAD9
:103E08004C013BE68A0938325000A8E7BC423FF42F
:103E180003AFBC68626822F0030262E7D8F800804A
:103E280098457BD11CF0030FA8F108030CF1FF3C67
:103E3800F4D17B6823EA00037B60400098423FF698
:103E4800BFAE00283FF4BCAE0342CC467FF465AE5B
:103E5800400003420CF1040CFAD05EE6BCF5AA7FE0
:103E68001AD84FEAD53C0CF1770C4FEA4C0105E61D
:103E78004FF48053EFE60123C8F80430444600228B
:103E88002FE791100120D8F8042000FA01F10A4325
:103E9800C8F80420194674E740F254539C451BD8CF
:103EA8004FEA954C0CF17C0C4FEA4C01E6E50AF11F
:103EB800100AA3E6542B1FD80A0B6E3250004EE7A7
:103EC800CBF30B0100297FF4B1AE0AEB0901BA6804
:103ED80041F001015160F6E6FC214FF07E0CCDE582
:103EE80001224FF0000ACBE604F108013046FFF743
:103EF80081FADAF80030E6E6B3F5AA7F03D8CA0BF0
:103F0800773250002BE740F25452934203D88A0C80
:103F18007C32500023E7FC207E2220E77B688CE778
:103F280098040020830770B4C9B23FD0541E2AB346
:103F380003788B4223D0431C04E0FCB104788C4204
:103F48001DD0144613F0030F184604F1FF3203F195
:103F58000103F2D1032C14D8651E4CB303788B42AD
:103F68000DD0421C002302E004788C4207D0AB42FB
:103F7800104603F1010302F10102F5D1002070BCE3
:103F8800704741EA0126034646EA064618460433C6
:103F980002687240A2F1013525EA020212F0803F60
:103FA800DAD1043C032C1846F0D8D5E71446D1E7FB
:103FB8002046E4E7844641EA000313F003036DD189
:103FC800403A41D351F8043B40F8043B51F8043BD4
:103FD80040F8043B51F8043B40F8043B51F8043BDB
:103FE80040F8043B51F8043B40F8043B51F8043BCB
:103FF80040F8043B51F8043B40F8043B51F8043BBB
:1040080040F8043B51F8043B40F8043B51F8043BAA
:1040180040F8043B51F8043B40F8043B51F8043B9A
:1040280040F8043B51F8043B40F8043B51F8043B8A
:1040380040F8043B51F8043B40F8043B51F8043B7A
:1040480040F8043B403ABDD2303211D351F8043B1A
:1040580040F8043B51F8043B40F8043B51F8043B5A
:1040680040F8043B51F8043B40F8043B103AEDD2C9
:104078000C3205D351F8043B40F8043B043AF9D21A
:10408800043208D0D2071CBF11F8013B00F8013BED
:1040980001D30B8803806046704700BF082A13D3FA
:1040A8008B078DD010F003038AD0C3F10403D21A12
:1040B800DB071CBF11F8013B00F8013B80D331F846
:1040C800023B20F8023B7BE7043AD9D3013A11F8C6
:1040D800013B00F8013BF9D20B7803704B78437031
:1040E8008B788370604670478842F0B410D98C187A
:1040F800A0420DD28518531E42B121462A4611F816
:10410800014D02F8014D013B5C1CF8D1F0BC704731
:104118000F2A3FD940EA01039B073FD1A2F11007BC
:104128003F0900EB071610360C46034625681D604C
:1041380065685D60A5689D60E568DD601033B34221
:1041480004F11004F2D17B1C02F00F0C1B01BCF12E
:10415800030F1944034423D90E461D466446043C04
:1041680056F8047B45F8047B032CF8D8ACF104041A
:1041780024F00304043402F0030223442144002AF7
:10418800C4D01A4411F8014B03F8014B9342F9D1FA
:10419800F0BC70470346002AF3D1B7E70346F0E7BF
:1041A8006246002AEDD1B1E7F0B4840743D0541E2B
:1041B800002A3ED0CDB2034603E0621E002C38D060
:1041C800144603F8015B9A07F7D1032C2AD9CDB21C
:1041D80045EA05250F2C45EA054515D9A4F1100730
:1041E8003F0903F1100606EB07161A4615605560DD
:1041F8009560D5601032B242F8D104F00F0401374F
:10420800032C03EB07130DD91E462246043A032A52
:1042180046F8045BFAD8221F22F003020432134442
:1042280004F003042CB1C9B21C4403F8011BA342D7
:10423800FBD1F0BC704714460346C6E7704700BF81
:10424800704700BFC26C70B505460C464AB152F8BB
:10425800240080B1016842F8241000220261C26083
:1042680070BD2122042100F0B7FDE8640246002851
:10427800EDD1002070BD012101FA04F6721D284617
:10428800920000F0A9FD0028F3D044608660E4E7BE
:1042980031B1C36C4A6853F82200086043F8221011
:1042A800704700BF2DE9F047D1F8108082B08946E9
:1042B800824601F1140500242F68BEB23F0C02FBB0
:1042C800063602FB07F303EB16430134B6B206EBDE
:1042D8000346A04545F8046B4FEA1343ECDC53B1A1
:1042E800D9F8082090450ADA09EB880108F101029B
:1042F8004B61C9F81020484602B0BDE8F087D9F8EC
:104308000410019301315046FFF79CFFD9F81020A3
:10431800023209F10C01044692000C30FFF74AFE04
:10432800DAF84C20D9F80410019B52F82100C9F89A
:10433800000042F82190A146D6E700BF030C1B04F9
:10434800B3B90004102310F07F4F04BF00020833F4
:1043580010F0704F04BF0001043310F0404F04BF49
:1043680080000233002807DB420003D42020704776
:104378000023E8E7581C704718467047036813F095
:10438800070207D0D90720D49A0720D49B080360D6
:104398000220704799B209B91B0C102213F0FF0FC5
:1043A80004BF1B0A0832190704BF1B090432990706
:1043B80004BF9B080232D90704D45B0801D120202E
:1043C80070470132036010467047002070475B0851
:1043D80003600120704700BF10B50C460121FFF7AC
:1043E80031FF01224461026110BD00BF2DE9F04F89
:1043F8000D69D2F810904D4585B00C46924604DA06
:104408002A4654464D468A469146A368616805EB9C
:1044180009079F42C8BF0131FFF714FF00F11406D6
:1044280006EB87084645019005D23346002043F83D
:10443800040B9845FBD80AF1140C0CEB89091434C9
:10444800CC45009404EB85055BD2CDF80880039732
:10445800C8465CF8043B9CB224B3009A33464FF03C
:10446800000900E00B4652F8047B19681FFA87FB25
:104478001FFA81FA380C090C04FB0BA7B94404FB9A
:10448800001000EB194019461FFA89F949EA00475C
:1044980095424FEA104941F8047BE3D8C3F80490E9
:1044A8005CF8043C5FEA134924D0D6F800A0009BCE
:1044B800504631464FF0000B00E011461A88000CB8
:1044C80009FB020083441FFA8AFA0A464AEA0B40AB
:1044D80042F8040B53F8047B48684FEA174A84B241
:1044E80009FB0A4A0AEB1B4A9D424FEA1A4BE4D8D9
:1044F800C1F804A0E04506F10406AAD8DDF8088052
:10450800039F002F0ADD58F8043CA8F104081BB1EA
:1045180004E058F8043D0BB9013FFAD1019B184655
:104528001F6105B0BDE8F08F12F003032DE9F041DB
:10453800144607460E462CD1A4101CD0BD6C002D85
:1045480030D04FF0000804E0641014D02868A8B1F7
:104558000546E307F8D5384631462A46FFF746FFB1
:10456800AEB17268FB6C641053F82210316043F8E6
:1045780022600646EAD13046BDE8F0813846294631
:104588002A46FFF733FF2860C0F80080E0E70646B8
:10459800DAE75D1E0A4A002352F82520FFF782FE5B
:1045A8000646C9E701213846FFF74CFE40F2712163
:1045B80001220023416102610546B8640360C0E737
:1045C800F86000082DE9F84F93460A698B684FEAAE
:1045D8006B1A0AEB020909F101069E420F46804652
:1045E800496804DD5B009E4201F10101FADC4046A6
:1045F800FFF728FEBAF1000F00F1140409DD0023CB
:104608001A4625460133534545F8042BFAD104EBE5
:1046180083043A6907F114031BF01F0B03EB820CA8
:1046280021D0CBF1200A002200E02C46196825464B
:1046380001FA0BF10A4345F8042B53F8042B6345A0
:1046480022FA0AF2F1D362600AB109F10206D8F837
:104658004C307A68013E53F822100661396043F8FD
:104668002270BDE8F88F53F8042B44F8042B9C45BE
:10467800EDD953F8042B44F8042B9C45F3D8E6E70E
:1046880002690B69D21A10B415D19B001430143189
:104698001944034401E0984211D253F8042D51F80B
:1046A800044DA242F7D0944294BF01204FF0FF304E
:1046B8005DF8044B704710465DF8044B70470020C6
:1046C8005DF8044B704700BF2DE9F0470D460446DE
:1046D800114628461646FFF7D3FF071E55D04EDB76
:1046E8004FF0000869682046FFF7ACFD2F69326972
:1046F800C0F80C801435143600F1140305EB870C50
:1047080006EB8208002156F8042B55F8044B1FFAD3
:1047180082F911FA84FA110CC1EB1441C9EB0A02AF
:1047280001EB224192B242EA0142B04543F8042B20
:104738004FEA21412C46E6D8AC45984615D954F89D
:10474800046B11FA86F1360C06EB214689B241EA70
:104758000642A44543F8042B4FEA2641EFD8EB4321
:10476800634423F0030304334344043B22B953F85E
:10477800042D013F002AFAD00761BDE8F0872B46D7
:104788004FF0010835461E46ACE720463946FFF78C
:1047980059FD012347610361BDE8F0872DE9F04326
:1047A80083B001211D46C3F30A5614460A9FFFF73A
:1047B80049FDC5F3130380460EB143F480130193FA
:1047C80024B302A840F8084D6846FFF7D7FD002833
:1047D80035D19DE80C00C8F81420002B0CBF01242B
:1047E8000224C8F81830C8F81040DEB908EB840372
:1047F800A0F2324038601869FFF7A0FD0B9BC0EBB0
:1048080044101860404603B0BDE8F08301A8FFF7E4
:10481800B5FD0124019BC8F814302030C8F81040B9
:10482800002EE3D0A6F2334909EB00033B600B9B53
:10483800C0F135001860404603B0BDE8F0839DE83C
:104848000C00C0F1200103FA01F10A43C3400193AF
:10485800C8F81420C1E700BF2DE9F04F0C4683B01B
:1048680090468146002900F0E280FFF7E7FC08F156
:104878000B0654F8043C162E23F00305A4F1080790
:104888004BD810210E46B0454CD88D4278DADFF867
:1048980090B3DBF808E07819864500F0CE804268CE
:1048A80022F0010C8444DCF804C01CF0010F7AD01B
:1048B80000221046DB0700F1928054F8083CC3EB55
:1048C800070ADAF8043023F003032B4488B3704551
:1048D80000F0ED8002EB030E8E452ADBC368826888
:1048E8005746D3609A6057F8081FDAF80C30CB6047
:1048F8002A1F242A996000F22681132A40F2B380E5
:104908002368CAF808306368CAF80C301B2A00F21A
:10491800308108340AF11003A6E026F00706002EBD
:104928003146B0DA0C230020C9F8003003B0BDE8E6
:10493800F08F8B4253DB5746DAF80C1057F8080F04
:104948002A1F242AC160886000F20981132A40F2D4
:1049580004812168CAF808106168CAF80C101B2A7B
:1049680000F21C8108340AF11002216811606168A4
:104978005160A16891601D46DAF804303C465746FC
:10498800AA1B0F2A03F0010319D82B433D447B606F
:104998006B6843F001036B604846FFF751FC204603
:1049A80003B0BDE8F08F22F0030202EB050C8C4542
:1049B80080DBC26881686546CA609160E0E7B91922
:1049C80042F001001E430A447E604860536843F089
:1049D8000103083153604846FEF70CFDDCE7414609
:1049E8004846FFF703F88046D0B154F8043C23F05A
:1049F80001023A44A0F10801914200F09E802A1F6A
:104A0800242A50D8132A23D803462246116819604D
:104A18005168596092689A6021464846FEF7EAFC58
:104A28004846FFF70DFC404603B0BDE8F08F11463D
:104A380003B0BDE8F04FFEF7D9BFDEF8042022F03E
:104A48000302501906F1100C604519DA704631E777
:104A580023680360636843601B2A63D800F1080376
:104A680004F10802D2E73B4622681A6062685A607D
:104A7800A2689A603C467546DAF8043057467FE7E4
:104A88003744831B43F00103CBF808707B6054F86C
:104A9800043C03F001031E43484644F8046CFFF746
:104AA800CFFB20467CE72146FFF71EFBB4E702EB6D
:104AB800030C06F110029445FFF63BAF5746DAF8AF
:104AC8000C3057F8081F2A1F242ACB60996000F27F
:104AD8008780132A78D92368CAF808306368CAF827
:104AE8000C301B2A00F2858008340AF11003226872
:104AF8001A6062685A60A2689A600AEB0603C6EBFD
:104B08000C0242F00102CBF808305A60DAF804309F
:104B180003F001031E434846CAF80460FFF790FB00
:104B280038463DE7A3688360E368C360242A2CD035
:104B380000F1100304F1100268E750F8042C22F089
:104B4800030215441CE72146384675463C46FFF7E4
:104B5800CBFA5746DAF8043012E73A4605E7214619
:104B680038461D463C46FFF7BFFA5746DAF8043088
:104B780006E7A368CAF81030E368CAF81430242A94
:104B880018D010340AF118036EE7236903616369CA
:104B9800436104F1180200F1180337E7A168CAF865
:104BA8001010E168CAF81410242A0FD010340AF142
:104BB8001802DAE62369CAF818306369CAF81C30A3
:104BC80018340AF120034FE73B4690E72269CAF8F8
:104BD80018206269CAF81C2018340AF12002C4E6B9
:104BE80021463846CDF804C0FFF77EFADDF804C048
:104BF80083E7A368CAF81030E368CAF81430242A97
:104C080003D010340AF1180371E72369CAF8183081
:104C18006369CAF81C3018340AF1200367E700BF3B
:104C28009804002031F0004310B408D00F4AA3F5CF
:104C3800801494420AD804205DF8044B7047002879
:104C48000CBF022003205DF8044B7047B3F5801FAA
:104C580001D20320F7E7064A934201D00020F2E789
:104C6800D0F1010038BF0020EDE700BFFFFFDF7F74
:104C78000000F07F38B5074C00230546084623603E
:104C8800FBF7B2FB431C00D038BD2368002BFBD0D8
:104C98002B6038BDEC08002010B50C46B1F90E1099
:104CA80000F0BCF9002803DB236D0344236510BD25
:104CB800A38923F48053A38110BD00BF2DE9F041DF
:104CC8000C4689891D46CB051646074606D5B4F914
:104CD8000E100022022300F08DF9A18921F48051E1
:104CE800A1813846B4F90E1032462B46BDE8F04192
:104CF80000F05EB810B50C46B1F90E1000F07AF964
:104D0800421CA38904D043F480532065A38110BDBD
:104D180023F48053A38110BDB1F90E1000F08CB8B4
:104D28004B6E2DE9F0479C040E46804691462AD5E5
:104D38009368126802F1080A1BB31AE9A000BF08B9
:104D480017D0043D002401E0A74210D0404655F892
:104D5800041F324600F0CAF8431C04F10104F3D1E1
:104D68000023C9F80830C9F80430BDE8F087D9F83D
:104D78000830A3EB8703C9F808300AF1080A002BAA
:104D8800DBD10020ECE7FEF703FC0023C9F808306C
:104D9800C9F80430BDE8F087936810B41BB15DF81A
:104DA800044BFFF7BDBF184653605DF8044B7047CE
:104DB80070B5084C06460025084611461A46256077
:104DC800FBF746FB431C00D070BD2368002BFBD0CB
:104DD800336070BDEC08002010B502FB01F1FEF74E
:104DE80005FE044668B150F8042C22F00302043A88
:104DF800242A18D8132A06D8034600221A605A60B3
:104E08009A60204610BD00231B2A036043600FD917
:104E1800242A8360C36005BF0361436100F1100366
:104E280000F11803E9E70021FFF7BEF9204610BD9D
:104E380000F10803E1E700BF38B5074C0023054639
:104E48000846236001F0D8F8431C00D038BD236819
:104E5800002BFBD02B6038BDEC08002070B50C4649
:104E6800054631B110B1836B002B2FD0B4F90C304B
:104E78000BB9002070BD28462146FEF7D3F9E36A36
:104E8800064633B12846E16998470028B8BF4FF075
:104E9800FF36A3891B061CD4216B41B104F14003E2
:104EA800994202D02846FEF7A5FA00232363616CD5
:104EB80021B12846FEF79EFA00236364FEF748FAFC
:104EC8000023A381FEF746FA304670BDFEF7C6F907
:104ED800CCE728462169FEF78DFADDE7024B01464B
:104EE8001868FFF7BBBF00BF380400202DE9F04168
:104EF80093890F46990482B01446804606D4526EB0
:104F080043F4005342F40052A3816266FEF7F4FCB6
:104F180001283DD03A46404601A904F15C0300F05F
:104F2800E5F8421C06462CD0002839D09DF804101C
:104F3800002509E0236819702368013323600135CF
:104F4800B5422DD201ABE95CA368013B002BA360FD
:104F5800F0DAA269934205DB23681970236819788F
:104F68000A29EAD14046224600F06CF8B0F1FF3336
:104F7800584258410028E2D04FF0FF3002B0BDE857
:104F8800F081A38943F04003A38102B0BDE8F0811A
:104F98007B1EFE2BBED8F9B206468DF80410C7E773
:104FA800384602B0BDE8F08138B5084C0023054604
:104FB80008461146236001F027F8431C00D038BD8D
:104FC8002368002BFBD02B6038BD00BFEC08002005
:104FD80038B5074C002305460846236001F01CF845
:104FE800431C00D038BD2368002BFBD02B6038BD94
:104FF800EC08002070B5084C064600250846114606
:105008001A46256001F010F8431C00D070BD2368D3
:10501800002BFBD0336070BDEC08002070B5084C45
:1050280006460025084611461A46256001F004F890
:10503800431C00D070BD2368002BFBD0336070BDCB
:10504800EC080020F8B50D461446074610B1836BEE
:10505800002B48D0A289A369A36093B2180738D55A
:105068002669002E35D09904EDB215D523686269FA
:105078009E1B96421CDA0136A268591C013AA260AE
:1050880021601D706369B3421AD0A389DB0701D57B
:105098000A2D15D02846F8BD636E23F4005342F458
:1050A800005263662368A28162699E1B9642E2DB16
:1050B80038462146FEF7B6F840B923680126DBE7F3
:1050C80038462146FEF7AEF80028E3D04FF0FF300F
:1050D800F8BD38462146FCF7E5FF0028F6D1A2893D
:1050E800266993B2BFE7FEF7B9F8B3E72DE9F041B7
:1050F8001E4686B00C46054617460F4B91B1D3F8AD
:105108000080FEF7F5FB0096034621463A462846FE
:10511800C047431C03D100228A2332602B6006B0AB
:10512800BDE8F0811F68FEF7E3FB009603462246C0
:10513800284603A9B847ECE7A808002021B1FF2AB0
:1051480004D80A7001207047084670478A23036014
:105158004FF0FF30704700BF81F0004102E000BF10
:1051680083F0004330B54FEA41044FEA430594EA1F
:10517800050F08BF90EA020F1FBF54EA000C55EA5A
:10518800020C7FEA645C7FEA655C00F0E2804FEA2B
:105198005454D4EB5555B8BF6D420CDD2C4480EA0D
:1051A800020281EA030382EA000083EA010180EA3D
:1051B800020281EA0303362D88BF30BD11F0004F8B
:1051C8004FEA01314FF4801C4CEA113102D04042C1
:1051D80061EB410113F0004F4FEA03334CEA1333FC
:1051E80002D0524263EB430394EA050F00F0A78014
:1051F800A4F10104D5F1200E0DDB02FA0EFC22FA0F
:1052080005F2801841F1000103FA0EF2801843FA02
:1052180005F359410EE0A5F120050EF1200E012AF3
:1052280003FA0EFC28BF4CF0020C43FA05F3C01831
:1052380051EBE37101F0004507D54FF0000EDCF1AA
:10524800000C7EEB00006EEB0101B1F5801F1BD353
:10525800B1F5001F0CD349085FEA30004FEA3C0C57
:1052680004F101044FEA445212F5800F80F09A804D
:10527800BCF1004F08BF5FEA500C50F1000041EB51
:10528800045141EA050130BD5FEA4C0C404141EB55
:10529800010111F4801FA4F10104E9D191F0000F7C
:1052A80004BF01460020B1FA81F308BF2033A3F1FF
:1052B8000B03B3F120020CDA0C3208DD02F1140CF6
:1052C800C2F10C0201FA0CF021FA02F10CE002F131
:1052D8001402D8BFC2F1200C01FA02F120FA0CFC2A
:1052E800DCBF41EA0C019040E41AA2BF01EB045173
:1052F800294330BD6FEA04041F3C1CDA0C340EDC71
:1053080004F11404C4F1200220FA04F001FA02F3B3
:1053180040EA030021FA04F345EA030130BDC4F171
:105328000C04C4F1200220FA02F001FA04F340EA66
:105338000300294630BD21FA04F0294630BD94F017
:10534800000F83F4801306BF81F480110134013DFE
:105358004EE77FEA645C18BF7FEA655C29D094EA6F
:10536800050F08BF90EA020F05D054EA000C04BFED
:105378001946104630BD91EA030F1EBF00210020D8
:1053880030BD5FEA545C05D14000494128BF41F077
:10539800004130BD14F580043CBF01F5801130BDDB
:1053A80001F0004545F0FE4141F470014FF0000066
:1053B80030BD7FEA645C1ABF194610467FEA655C17
:1053C8001CBF0B46024650EA013406BF52EA0335B9
:1053D80091EA030F41F4002130BD00BF90F0000FA7
:1053E80004BF0021704730B54FF4806404F13204E3
:1053F8004FF000054FF0000150E700BF90F0000F9C
:1054080004BF0021704730B54FF4806404F13204C2
:1054180010F0004548BF40424FF000013EE700BF92
:1054280042004FEAE2014FEA31014FEA02701FBF22
:1054380012F07F4393F07F4F81F06051704792F0F4
:10544800000F14BF93F07F4F704730B54FF460746E
:1054580001F0004521F0004120E700BF50EA0102B9
:1054680008BF704730B54FF000050AE050EA010266
:1054780008BF704730B511F0004502D5404261EBD6
:1054880041014FF4806404F132045FEA915C3FF417
:10549800DCAE4FF003025FEADC0C18BF03325FEAB0
:1054A800DC0C18BF033202EBDC02C2F1200300FA65
:1054B80003FC20FA02F001FA03FE40EA0E0021FA8A
:1054C80002F11444C1E600BF70B54FF0FF0C4CF474
:1054D800E06C1CEA11541DBF1CEA135594EA0C0F2A
:1054E80095EA0C0F00F0DEF82C4481EA030621EA65
:1054F8004C5123EA4C5350EA013518BF52EA0335A0
:1055080041F4801143F4801338D0A0FB02CE4FF051
:105518000005E1FB02E506F00042E0FB03E54FF081
:105528000006E1FB03569CF0000F18BF4EF0010E79
:10553800A4F1FF04B6F5007F64F5407404D25FEA75
:105548004E0E6D4146EB060642EAC62141EA555128
:105558004FEAC52040EA5E504FEACE2EB4F1FD0C6A
:1055680088BFBCF5E06F1ED8BEF1004F08BF5FEAE8
:10557800500E50F1000041EB045170BD06F000469A
:1055880046EA010140EA020081EA0301B4EB5C0447
:10559800C2BFD4EB0C0541EA045170BD41F480113F
:1055A8004FF0000E013C00F3AB8014F1360FDEBF64
:1055B800002001F0004170BDC4F10004203C35DA40
:1055C8000C341BDC04F11404C4F1200500FA05F3C3
:1055D80020FA04F001FA05F240EA020001F0004264
:1055E80021F0004110EBD37021FA04F642EB0601DA
:1055F8005EEA430E08BF20EAD37070BDC4F10C0404
:10560800C4F1200500FA04F320FA05F001FA04F2C7
:1056180040EA020001F0004110EBD37041F10001B3
:105628005EEA430E08BF20EAD37070BDC4F12005BE
:1056380000FA05F24EEA020E20FA04F301FA05F226
:1056480043EA020321FA04F001F0004121FA04F2CE
:1056580020EA020000EBD3705EEA430E08BF20EA9E
:10566800D37070BD94F0000F0FD101F000464000D8
:1056780041EB010111F4801F08BF013CF7D041EA5A
:10568800060195F0000F18BF704703F0004652005E
:1056980043EB030313F4801F08BF013DF7D043EA2F
:1056A8000603704794EA0C0F0CEA135518BF95EAE5
:1056B8000C0F0CD050EA410618BF52EA4306D1D16C
:1056C80081EA030101F000414FF0000070BD50EA8B
:1056D800410606BF1046194652EA430619D094EA15
:1056E8000C0F02D150EA013613D195EA0C0F05D1FF
:1056F80052EA03361CBF104619460AD181EA030153
:1057080001F0004141F0FE4141F470014FF000000A
:1057180070BD41F0FE4141F4780170BD70B54FF0A5
:10572800FF0C4CF4E06C1CEA11541DBF1CEA135525
:1057380094EA0C0F95EA0C0F00F0A7F8A4EB050407
:1057480081EA030E52EA03354FEA013100F08880FE
:105758004FEA03334FF0805545EA131343EA1263C7
:105768004FEA022245EA111545EA10654FEA00267C
:105778000EF000419D4208BF964244F1FD0404F535
:10578800407402D25B084FEA3202B61A65EB030591
:105798005B084FEA32024FF480104FF4002CB6EB4E
:1057A800020E75EB030E22BFB61A754640EA0C00CE
:1057B8005B084FEA3202B6EB020E75EB030E22BF0E
:1057C800B61A754640EA5C005B084FEA3202B6EB4F
:1057D800020E75EB030E22BFB61A754640EA9C000E
:1057E8005B084FEA3202B6EB020E75EB030E22BFDE
:1057F800B61A754640EADC0055EA060E18D04FEA9C
:10580800051545EA16754FEA06164FEAC30343EA3B
:1058180052734FEAC2025FEA1C1CC0D111F4801F08
:105828000BD141EA00014FF000004FF0004CB6E701
:1058380011F4801F04BF01430020B4F1FD0C88BFA0
:10584800BCF5E06F3FF6AFAEB5EB030C04BFB6EBAB
:10585800020C5FEA500C50F1000041EB045170BD9E
:105868000EF0004E4EEA113114EB5C04C2BFD4EBCB
:105878000C0541EA045170BD41F480114FF0000E4F
:10588800013C90E645EA060E8DE60CEA135594EACB
:105898000C0F08BF95EA0C0F3FF43BAF94EA0C0FCE
:1058A8000AD150EA01347FF434AF95EA0C0F7FF443
:1058B80025AF104619462CE795EA0C0F06D152EA97
:1058C80003353FF4FDAE1046194622E750EA41067B
:1058D80018BF52EA43067FF4C5AE50EA41047FF48C
:1058E8000DAF52EA43057FF4EBAE12E74FF0FF3CF1
:1058F80006E000BF4FF0010C02E000BF4FF0010CC2
:105908004DF804CD4FEA410C7FEA6C5C4FEA430C3A
:1059180018BF7FEA6C5C1BD001B050EA410C0CBF89
:1059280052EA430C91EA030F02BF90EA020F0020EB
:10593800704710F1000F91EA030F58BF994208BF52
:1059480090422CBFD8176FEAE37040F0010070470F
:105958004FEA410C7FEA6C5C02D150EA013C07D166
:105968004FEA430C7FEA6C5CD6D152EA033CD3D0B1
:105978005DF8040B704700BF8446104662468C46AB
:105988001946634600E000BF01B5FFF7B7FF0028DE
:1059980048BF10F1000F01BD4DF808EDFFF7F4FF07
:1059A8000CBF012000205DF808FB00BF4DF808ED92
:1059B800FFF7EAFF34BF012000205DF808FB00BFB5
:1059C8004DF808EDFFF7E0FF94BF012000205DF8D7
:1059D80008FB00BF4DF808EDFFF7CEFF94BF01208C
:1059E80000205DF808FB00BF4DF808EDFFF7C4FF85
:1059F80034BF012000205DF808FB00BF4FEA4102D8
:105A080012F5001215D211D56FF47873B3EB625208
:105A180012D94FEAC12343F0004343EA505311F02F
:105A2800004F23FA02F018BF404270474FF00000C1
:105A3800704750EA013005D111F0004008BF6FF0FF
:105A4800004070474FF00000704700BF4BB942B9A3
:105A5800002908BF002802D04FF0FF31084600F0A7
:105A68003BB882B0EC462DE9005000F01DF8DDF897
:105A780004E002B00CBC70472DE97043069E144642
:105A88001D468046894600F029F804FB01F300FB17
:105A98000533A4FB00451D44B8EB040469EB050578
:105AA800C6E90045BDE870832DE97043069E14469B
:105AB800804689461D4600F05DF900FB05F504FBAC
:105AC8000153A0FB04451D44B8EB040469EB05052C
